S00F00004C4344546573742E73726563A2
S11300000C942A000C9447000C9447000C941004A0
S11300100C9447000C9447000C9447000C94470040
S11300200C9447000C9447000C9447000C94470030
S11300300C9447000C9447000C9447000C94470020
S11300400C9447000C9447000C9447000C94470010
S11300500C94470011241FBECFE5D4E0DEBFCDBF12
S113006011E0A0E6B0E0E6EDF3E202C005900D92E7
S1130070A433B107D9F711E0A4E3B1E001C01D92A4
S1130080AF3FB107E1F70E943F040C94E9110C94CF
S11300900000CF93DF9300D000D0CDB7DEB76983E3
S11300A07A838B839C8301C0000021E089819A813B
S11300B0AB81BC810097A105B10509F420E08981D9
S11300C09A81AB81BC810197A109B10989839A8383
S11300D0AB83BC83222341F70F900F900F900F90B6
S11300E0DF91CF910895CF93DF93CDB7DEB78CE046
S11300F080933C0110923D0110923F0110923E0109
S113010080913C0190913D01A0913E01B0913F014D
S113011021ED31E0BC01CD01A9010E947F0A1092BA
S11301205301DF91CF910895CF93DF93CDB7DEB71D
S11301308CE080934101109242011092440110928C
S113014043018091410190914201A0914301B091FA
S1130150440125EA31E0BC01CD01A9010E947F0AD6
S1130160DF91CF910895CF93DF9300D00F92CDB755
S1130170DEB785E791E00E94830B982F81E0892701
S1130180882331F185E791E00E943A0CDC01CB0130
S113019089839A83AB838EE491E09E012F5F3F4F66
S11301A043E0F90100802F5F3F4FFC01008201967C
S11301B041504423B1F780914E01813019F00E94DF
S11301C0A80106C080914E01813011F40E94F4010F
S11301D087E991E00E94F00C982F81E08927882319
S11301E079F087E991E00E94900D8093400180911D
S11301F051019091520101969093520180935101C3
S113020080915101909152018E31910509F09AC06B
S113021027E631E080915301B9010E94410D10920B
S113022052011092510180913D018F5F80933D01F5
S113023080913D018C3309F059C010923D018091A9
S11302403C018F5F80933C0180913C018C30F9F438
S113025080913F01882321F481E080933F0102C013
S113026010923F0180914E01813009F452C0809177
S11302703C0190913D01A0913E01B0913F0121EDDF
S113028031E0BC01CD01A9010E947F0A42C08091E6
S11302903C018D30B9F481E080933C0180914E01A2
S11302A08130B9F180913C0190913D01A0913E01D2
S11302B0B0913F0121ED31E0BC01CD01A9010E94C3
S11302C07F0A27C080914E01813019F180913C0151
S11302D090913D01A0913E01B0913F0121ED31E0AB
S11302E0BC01CD01A9010E947F0A13C080914E0177
S11302F0813079F080913C0190913D01A0913E01C3
S1130300B0913F0121ED31E0BC01CD01A9010E9472
S11303107F0A9091410180913C01981799F4909142
S1130320420180913D01981769F4909144018091B4
S11303303F01981739F429E531E080915301B9015F
S11303400E94410D0F900F900F90DF91CF9108956F
S1130350CF93DF93CDB7DEB780914F018823F9F4B3
S113036080913C018F5F80933C0110925201109266
S1130370510180913C018C3059F480913F018823D4
S113038021F481E080933F010AC010923F0107C02D
S113039080913C018D3019F481E080933C0180917F
S11303A04F01813079F480913D018F5F80933D014D
S11303B0109252011092510180913D018C3311F43D
S11303C010923D0180913C0190913D01A0913E012C
S11303D0B0913F0121ED31E0BC01CD01A9010E94A2
S11303E07F0ADF91CF910895CF93DF93CDB7DEB726
S11303F080914F018823D9F4809141018F5F8093CC
S11304004101809141018C3059F480914401882349
S113041021F481E0809344010AC01092440107C092
S1130420809141018D3019F481E0809341018091E4
S11304304F01813059F4809142018F5F80934201D2
S1130440809142018C3311F4109242018091410158
S113045090914201A0914301B091440125EA31E019
S1130460BC01CD01A9010E947F0ADF91CF910895BB
S1130470CF93DF93CDB7DEB78091340140EA50E0EB
S113048020E630E0BA01A9010E94DC038093340124
S11304908091350140EA50E020E730E0BA01A9013B
S11304A00E94DC03809335018091360140EA50E0DC
S11304B020E830E0BA01A9010E94DC0380933601F0
S11304C08091FD01882369F480E390E0FC01808140
S11304D0882F90E080749070009719F081E08093E9
S11304E0FD018091FD01813061F480E390E0FC0125
S11304F08081882F90E080749070009711F410929E
S1130500FD01DF91CF910895CF93DF93CDB7DEB78F
S113051081E08093570125E731E0609156017091A5
S1130520570180915801A9010E94D60B80E390E005
S1130530FC018081882F90E081709070882311F0F5
S113054080E001C081E0DF91CF910895CF93DF93E4
S1130550CDB7DEB71092570125E731E0609156011F
S11305607091570180915801A9010E94D60B80E334
S113057090E0FC018081882F90E082709070009759
S113058011F080E001C081E0DF91CF910895CF9315
S1130590DF93CDB7DEB780915601882321F481E043
S11305A08093560102C01092560125E731E0609114
S11305B056017091570180915801A9010E94D60BF0
S11305C080E390E0FC018081882F90E0847090703B
S11305D0009711F080E001C081E0DF91CF91089590
S11305E0CF93DF93CDB7DEB71092580125E731E002
S11305F0609156017091570180915801A9010E94A0
S1130600D60B80E390E0FC018081882F90E0807419
S11306109070009711F080E001C081E0DF91CF91EC
S11306200895CF93DF93CDB7DEB781E0809358016F
S113063025E731E06091560170915701809158018E
S1130640A9010E94D60B80E390E0FC018081882FF1
S113065090E080749070009711F080E001C081E018
S1130660DF91CF910895CF93DF93CDB7DEB782E0CA
S11306708093570180E390E0FC018081882F90E013
S113068081709070882311F080E001C081E0DF91D7
S1130690CF910895CF93DF93CDB7DEB782E08093F7
S11306A0570180E390E0FC018081882F90E0827004
S11306B09070009711F080E001C081E0DF91CF914C
S11306C00895CF93DF93CDB7DEB782E080935701CF
S11306D080E390E0FC018081882F90E0847090702A
S11306E0009711F080E001C081E0DF91CF9108957F
S11306F0CF93DF93CDB7DEB780E390E0FC01808138
S1130700882F90E080749070009711F080E001C011
S113071081E0DF91CF910895CF93DF9300D000D093
S113072000D0CDB7DEB78B836C835E834D831A8292
S1130730198233C029813A81C901880F991F820F18
S1130740931F2D813E81820F931FFC0190818B8129
S11307509817F1F429813A81C901880F991F820FF2
S1130760931F2D813E81820F931FFC0191818C8107
S1130770981771F429813A81C901880F991F820F52
S1130780931F2D813E81820F931FFC0182810BC038
S113079089819A8101969A83898389819A8180319A
S11307A0910544F28B8126960FB6F894DEBF0FBEF6
S11307B0CDBFDF91CF910895CF93DF93CDB7DEB74F
S11307C028970FB6F894DEBF0FBECDBF8C837E830F
S11307D06D8358874F838C81882F90E0880F991FF1
S11307E02F813885820F931FFC01808191819A8328
S11307F0898389819A81FC0109958B832D813E81AE
S11308008C816B81A9010E948C038C838C81289636
S11308100FB6F894DEBF0FBECDBFDF91CF91089520
S11308201F920F920FB60F9211242F933F934F9361
S11308305F936F937F938F939F93AF93BF93EF9344
S1130840FF93CF93DF93CDB7DEB727E931E08091F3
S11308505301B9010E94410DDF91CF91FF91EF91B6
S1130860BF91AF919F918F917F916F915F914F91C4
S11308703F912F910F900FBE0F901F901895CF931B
S1130880DF93CDB7DEB78AE390E02FEFFC0120833E
S113089081E390E020E3FC01208387E390E02BE0F8
S11308A0FC01208384E390E0FC01108285E490E065
S11308B02EE0FC01208389E590E020E8FC01208300
S11308C082E490E028E0FC01208383E490E02FEFB1
S11308D0FC0120838FE490E0FC0110828EE490E020
S11308E0FC0110820E947E0478940E94A4040E9459
S11308F038020E94B3000E942108F7CFCF93DF9300
S1130900CDB7DEB70E94F20685E791E00E94690B3D
S113091081ED91E00E94120A85EA91E00E94120A98
S113092087E991E00E94D60C89E591E00E94D60CFB
S11309300E9494000E94730081E08093FD01109254
S11309405301DF91CF910895CF93DF93CDB7DEB7F5
S113095028970FB6F894DEBF0FBECDBF85EA91E0AD
S11309600E942C0A982F81E089278823B1F085EA18
S113097091E00E94F00ADC01CB0189839A83AB8366
S1130980BC8389819A81AB81BC81BC01CD010E9469
S1130990F10480ED90E00E949D0681ED91E00E94BB
S11309A02C0A982F81E08927882391F081ED91E02A
S11309B00E94F00ADC01CB018D839E83AF83B8874C
S11309C08D819E81AF81B885BC01CD010E94F10467
S11309D028960FB6F894DEBF0FBECDBFDF91CF913E
S11309E00895CF93DF93CDB7DEB72C970FB6F89465
S11309F0DEBF0FBECDBF69877A878B879C878985C9
S1130A009AE0692F0E94F00E992787FD9095C09671
S1130A109A83898389859AE0692F0E94F00E892F31
S1130A20992787FD9095C0969C838B838A859AE04D
S1130A30692F0E94F00E992787FD9095C0969E839A
S1130A408D838A859AE0692F0E94F00E892F992759
S1130A5087FD9095C09698878F830E9482050E9497
S1130A6092058985875F833128F486ED90E00E94A2
S1130A709D0603C089810E94C0068B810E94C00626
S1130A8088ED90E00E949D068D810E94C0068F81B2
S1130A900E94C00686ED90E00E949D068C85882306
S1130AA029F48AED90E00E949D0604C08DED90E04B
S1130AB00E949D062C960FB6F894DEBF0FBECDBFE4
S1130AC0DF91CF910895CF93DF93CDB7DEB788E35D
S1130AD090E028E330E0F90120812260FC012083CA
S1130AE06AE070E080E090E00E94490088E390E0D2
S1130AF028E330E0F90120812D7FFC012083DF9180
S1130B00CF910895CF93DF93CDB7DEB781E00E94F4
S1130B10E40664EF71E080E090E00E944900DF9118
S1130B20CF910895CF93DF93CDB7DEB782E00E94D3
S1130B30E40664EF71E080E090E00E944900DF91F8
S1130B40CF910895CF93DF93CDB7DEB76AEF70E00E
S1130B5080E090E00E944900DF91CF910895CF9307
S1130B60DF9300D0CDB7DEB789836A830E94A205E4
S1130B708A81882351F088E390E028E330E0F9018A
S1130B8020812160FC01208309C088E390E028E3F0
S1130B9030E0F90120812E7FFC0120838BE390E07B
S1130BA0FC011082898188234CF48BE390E02BE3D1
S1130BB030E0F90120812068FC0120838981882F9D
S1130BC090E080749070009749F08BE390E02BE301
S1130BD030E0F90120812064FC0120838981882F81
S1130BE090E080729070009749F08BE390E02BE3E3
S1130BF030E0F90120812062FC0120838981882F63
S1130C0090E080719070009749F08BE390E02BE3C3
S1130C1030E0F90120812061FC0120838981882F43
S1130C2090E088709070009749F08BE390E02BE39C
S1130C3030E0F90120812860FC0120838981882F1C
S1130C4090E084709070009749F08BE390E02BE380
S1130C5030E0F90120812460FC0120838981882F00
S1130C6090E082709070009749F08BE390E02BE362
S1130C7030E0F90120812260FC0120838981882FE2
S1130C8090E081709070882349F08BE390E02BE32F
S1130C9030E0F90120812160FC0120830E9463057A
S1130CA08BE390E02BE330E0F90120812160FC012B
S1130CB020838BE390E02BE330E0F9012081226074
S1130CC0FC0120838BE390E02BE330E0F9012081E9
S1130CD02460FC0120838BE390E02BE330E0F901F6
S1130CE020812860FC0120838BE390E02BE330E03B
S1130CF0F90120812061FC0120838BE390E02BE348
S1130D0030E0F90120812062FC0120838BE390E034
S1130D102BE330E0F90120812064FC0120838BE384
S1130D2090E02BE330E0F90120812068FC0120836E
S1130D300F900F90DF91CF910895CF93DF9300D060
S1130D400F92CDB7DEB79B838A8303C089810E944B
S1130D50C0068A819B81FC018081898321E089818D
S1130D60882309F420E08A819B8101969B838A83EE
S1130D70222361F70F900F900F90DF91CF91089588
S1130D80CF93DF930F92CDB7DEB7898389818A3001
S1130D9099F480913801909139018330910524F0C0
S1130DA080E00E9477070CC080913801909139014E
S1130DB08F5F0E94770704C0898161E00E94AF05BC
S1130DC00F90DF91CF910895CF93DF930F92CDB71A
S1130DD0DEB78983898160E00E94AF050F90DF91BF
S1130DE0CF910895CF93DF93CDB7DEB768EA71E66C
S1130DF080E090E00E9449008BE390E0FC011082C7
S1130E0088E390E0FC0110828BE390E02BE330E078
S1130E10F90120812062FC0120838BE390E02BE325
S1130E2030E0F90120812061FC0120830E946305E8
S1130E3068E873E180E090E00E9449000E94630545
S1130E4060ED77E080E090E00E9449000E94630535
S1130E5060ED77E080E090E00E94490088E390E054
S1130E6028E330E0F90120812460FC01208388E339
S1130E700E94E40668EE73E080E090E00E9449007E
S1130E8088E00E94E40668EE73E080E090E00E944F
S1130E9049000E94820568EE73E080E090E00E94C1
S1130EA0490086E00E94E40668EE73E080E090E08A
S1130EB00E9449008CE00E94E40668EE73E080E042
S1130EC090E00E94490084E10E94E40668EE73E029
S1130ED080E090E00E9449000E94920568EE73E071
S1130EE080E090E00E944900DF91CF910895CF9374
S1130EF0DF9300D0CDB7DEB78A8319828A81882F29
S1130F0090E08130910579F0823091051CF40097CE
S1130F1041F012C08230910549F08330910549F0C7
S1130F200BC019820BC080E4898308C084E18983E3
S1130F3005C084E5898302C0198200008A81882F54
S1130F4090E09093390180933801898180580E9400
S1130F50E4060F900F90DF91CF910895CF93DF9324
S1130F60CDB7DEB7C650D1400FB6F894DEBF0FBE82
S1130F70CDBF80E091E09A83898389819A8101972A
S1130F809C838B839E01235F3E4FCE018B5F9E4FDC
S1130F90FC013183208389819A810197BC01CE01B0
S1130FA08B5F9E4FFC0120813181CE010596C55F88
S1130FB0DE4F48815981CB50D1400E94090FCE01A8
S1130FC005960E949D06CA5FDE4F0FB6F894DEBFF9
S1130FD00FBECDBFDF91CF910895CF93DF9300D0A3
S1130FE0CDB7DEB789836A838A81882F90E0813008
S1130FF0910591F0823091051CF4009741F01BC0DB
S11310008230910571F08330910581F014C089819B
S113101080580E94E40610C0898180540E94E4062E
S11310200BC089818C560E94E40606C089818C52CB
S11310300E94E40601C000000F900F90DF91CF9151
S11310400895CF93DF93CDB7DEB789E591E00E9491
S1131050F00C982F81E08927882331F089E591E00D
S11310600E94900D1092E00087E691E00E94F00C3F
S1131070982F81E08927882349F087E691E00E9430
S1131080900D80913B018F5F80933B0180913A01E9
S113109041EF50E021EE30E0BA01A9010E94DE09DF
S11310A080933A01DF91CF910895CF93DF93CDB729
S11310B0DEB710923B0183E590E0FC0110828FE4DF
S11310C090E0FC0110828EE490E0FC01108288E440
S11310D090E0FC01118210828CE590E0FC0110820A
S11310E08091FD01813029F481E08093E00088E063
S11310F00BC08091E000882331F48091FD018823A6
S113110011F480E001C000C0DF91CF910895CF9326
S1131110DF93CDB7DEB783E590E02CE6FC012083B6
S11311208CE590E025E0FC0120838091FD01813075
S113113011F487E009C080913B01853021F41092BD
S11311403B0180E001C088E0DF91CF910895CF9307
S1131150DF93CDB7DEB78FE490E023EAFC01208370
S11311608EE490E02DE1FC0120838AE490E02CECF5
S11311703DE1FC01318320838CE590E02FE0FC010C
S1131180208388E490E028EE3CE1FC013183208355
S11311908091FD01813029F481E08093E00087E0B3
S11311A009C080913B01853021F410923B0181E01C
S11311B001C088E0DF91CF910895CF93DF93CDB73D
S11311C0DEB78CE590E024E1FC01208388E490E024
S11311D024E83CE1FC01318320838091FD018130CE
S11311E029F481E08093E00087E009C080913B010D
S11311F0853021F410923B0183E001C088E0DF9147
S1131200CF910895CF93DF93CDB7DEB78CE590E00F
S11312102EE1FC01208388E490E020E23CE1FC0123
S1131220318320838091FD01813029F481E0809312
S1131230E00087E009C080913B01853021F41092E1
S11312403B0182E001C088E0DF91CF910895CF9304
S1131250DF93CDB7DEB78CE590E028E2FC01208374
S113126088E490E02CEB3BE1FC0131832083809106
S1131270FD01813029F481E08093E00087E009C01A
S113128080913B01853021F410923B0184E001C040
S113129088E0DF91CF910895CF93DF93CDB7DEB788
S11312A08CE590E022E3FC01208388E490E028E5CB
S11312B03BE1FC01318320838091FD01813029F4DD
S11312C081E08093E00087E009C080913B01853094
S11312D021F410923B0185E001C088E0DF91CF91B9
S11312E00895CF93DF93CDB7DEB78CE590E02CE380
S11312F0FC01208388E490E024EF3AE1FC0131838F
S113130020838091FD01813029F481E08093E00005
S113131087E001C088E0DF91CF910895CF93DF93F8
S113132000D000D000D0CDB7DEB78B836C835E8352
S11313304D831A82198233C029813A81C901880FE9
S1131340991F820F931F2D813E81820F931FFC01F1
S113135090818B819817F1F429813A81C901880F12
S1131360991F820F931F2D813E81820F931FFC01D1
S113137091818C81981771F429813A81C901880F70
S1131380991F820F931F2D813E81820F931FFC01B1
S113139082810BC089819A8101969A83898389818C
S11313A09A818631910544F28B8126960FB6F89482
S11313B0DEBF0FBECDBFDF91CF910895CF93DF93F2
S11313C0CDB7DEB728970FB6F894DEBF0FBECDBFFA
S11313D08C837E836D8358874F838C81882F90E024
S11313E0880F991F2F813885820F931FFC018081FC
S11313F091819A83898389819A81FC0109958B83E0
S11314002D813E818C816B81A9010E948E098C8380
S11314108C8128960FB6F894DEBF0FBECDBFDF9146
S1131420CF910895CF93DF9300D0CDB7DEB79A83E1
S1131430898329813A8189819A81FC0131A720A776
S113144029813A8189819A81FC0133A722A70F90CF
S11314500F90DF91CF910895CF93DF9300D0CDB754
S1131460DEB79A83898389819A81FC0120A531A5FD
S113147089819A81FC0182A593A541E02817390747
S113148009F040E0842F0F900F90DF91CF910895E1
S1131490CF93DF9300D0CDB7DEB79A838983898158
S11314A09A81FC0180A591A59C0189819A81FC0106
S11314B082A593A5A901481B590BCA01049784303E
S11314C0910510F481E016C089819A81FC0182A5FE
S11314D093A59C0189819A81FC0180A591A5A9010C
S11314E0481B590BCA0184978430910510F481E09C
S11314F001C080E00F900F90DF91CF910895CF93BA
S1131500DF93CDB7DEB727970FB6F894DEBF0FBED3
S1131510CDBF6A837B838C839D835F834E838FE5FA
S113152090E0FC0180818983F8948E819F810E94E0
S1131530480A982F81E08927882309F443C08E81C3
S11315409F81FC0182A593A52A81FC0120838E81C1
S11315509F81FC0182A593A52B81FC0121838E81AF
S11315609F81FC0182A593A52D81FC0123838E819B
S11315709F81FC0182A593A52C81FC0122838E818D
S11315809F81FC0182A593A59C012C5F3F4F8E8116
S11315909F81FC0133A722A78E819F81FC0182A534
S11315A093A59C018E819F81A901481B590BCA01F7
S11315B0883291053CF02E813F818E819F81FC0110
S11315C033A722A78FE590E02981FC012083279689
S11315D00FB6F894DEBF0FBECDBFDF91CF91089553
S11315E0CF93DF93CDB7DEB727970FB6F894DEBF5E
S11315F00FBECDBF9F838E838FE590E0FC01808179
S11316008983F8948E819F810E942C0A882351F04B
S11316108FE590E02981FC0120838A819B81AC8144
S1131620BD814CC08E819F81FC0180A591A5FC01E8
S113163080818A838E819F81FC0180A591A5FC0114
S113164081818B838E819F81FC0180A591A5FC0102
S113165083818D838E819F81FC0180A591A5FC01EE
S113166082818C838E819F81FC0180A591A59C0140
S11316702C5F3F4F8E819F81FC0131A720A78E8173
S11316809F81FC0180A591A59C018E819F81A90168
S1131690481B590BCA01883291053CF02E813F81C9
S11316A08E819F81FC0131A720A78FE590E02981DD
S11316B0FC0120838A819B81AC81BD81BC01CD0169
S11316C027960FB6F894DEBF0FBECDBFDF91CF9142
S11316D00895CF93DF9300D0CDB7DEB79A83898383
S11316E029813A8189819A81FC01378F268F29814A
S11316F03A8189819A81FC0131A320A30F900F9034
S1131700DF91CF910895CF93DF9300D0CDB7DEB7AB
S11317109A83898389819A81FC01268D378D8981F9
S11317209A81FC0180A191A141E02817390709F0B1
S113173040E0842F0F900F90DF91CF910895CF93C5
S1131740DF9300D0CDB7DEB79A83898389819A81EC
S1131750FC01868D978D9C0189819A81FC0180A171
S113176091A1A901481B590BCA0103978330910524
S113177010F481E016C089819A81FC0180A191A1B5
S11317809C0189819A81FC01868D978DA901481B52
S1131790590BCA014B978330910510F481E001C0C5
S11317A080E00F900F90DF91CF910895CF93DF9356
S11317B000D000D000D0CDB7DEB76A837B838C83A2
S11317C05E834D838FE590E0FC0180818983F894EA
S11317D08D819E810E949F0B982F81E08927882309
S11317E0D9F18D819E81FC0180A191A12B81FC0105
S11317F021838D819E81FC0180A191A12A81FC011C
S113180020838D819E81FC0180A191A12C81FC010A
S113181022838D819E81FC0180A191A19C012D5F79
S11318203F4F8D819E81FC0131A320A38D819E8138
S1131830FC0180A191A19C018D819E81A901481B7D
S1131840590BCA018E3191053CF02D813E818D8169
S11318509E81FC0131A320A38FE590E02981FC0146
S1131860208326960FB6F894DEBF0FBECDBFDF915E
S1131870CF910895EF92FF920F931F93CF93DF932D
S1131880CDB7DEB729970FB6F894DEBF0FBECDBF34
S1131890998788878FE590E0FC0180818983F8949B
S11318A0888599850E94830B8823B1F08FE590E0A9
S11318B02981FC012083CE0102969E012B5F3F4FBC
S11318C043E0F90100802F5F3F4FFC010082019645
S11318D041504423B1F750C088859985FC01868D19
S11318E0978DFC0181818E8388859985FC01868D85
S11318F0978DFC0180818D8388859985FC01868D77
S1131900978DFC0182818F8388859985FC01868D62
S1131910978D9C012D5F3F4F88859985FC01378FFA
S1131920268F88859985FC01868D978D9C018885F5
S11319309985A901481B590BCA018E3191053CF0C8
S11319402885398588859985FC01378F268F8FE511
S113195090E02981FC012083CE0102969E012B5F39
S11319603F4F43E0F90100802F5F3F4FFC010082AD
S1131970019641504423B1F720E02A8190E09B81F5
S113198080E08C81E22EF92E082FD801C701BC011A
S1131990CD0129960FB6F894DEBF0FBECDBFDF91FF
S11319A0CF911F910F91FF90EF900895CF93DF9304
S11319B000D0CDB7DEB79A83898329813A818981A2
S11319C09A81FC013387228729813A8189819A810E
S11319D0FC01358724870F900F90DF91CF910895F4
S11319E0CF93DF9300D0CDB7DEB79A838983898103
S11319F09A81FC012285338589819A81FC01848541
S1131A00958541E02817390709F040E0842F0F90AD
S1131A100F90DF91CF910895CF93DF9300D0CDB78E
S1131A20DEB79A83898389819A81FC0182859385B3
S1131A309C0189819A81FC0184859585A901481BB3
S1131A40590BCA018130910511F481E015C08981D7
S1131A509A81FC01848595859C0189819A81FC0188
S1131A6082859385A901481B590BCA0189309105C8
S1131A7011F481E001C080E00F900F90DF91CF91CD
S1131A800895CF93DF9300D000D0CDB7DEB78A831B
S1131A907C836B838FE590E0FC0180818983F894DB
S1131AA08B819C810E94480A982F81E08927882392
S1131AB059F18B819C81FC01848595852A81FC01E7
S1131AC020838B819C81FC01848595859C012F5FFB
S1131AD03F4F8B819C81FC01358724878B819C81BE
S1131AE0FC01848595859C018B819C81A901481BFF
S1131AF0590BCA018A3091053CF02B813C818B81C2
S1131B009C81FC01358724878FE590E02981FC01C5
S1131B1020830F900F900F900F90DF91CF91089535
S1131B20CF93DF9300D000D0CDB7DEB79C838B83F7
S1131B308FE590E0FC0180818983F8948B819C81FE
S1131B400E940C0D882339F08FE590E02981FC0177
S1131B5020838A8131C08B819C81FC01828593859D
S1131B60FC0180818A838B819C81FC018285938521
S1131B709C012F5F3F4F8B819C81FC01338722871F
S1131B808B819C81FC01828593859C018B819C8146
S1131B90A901481B590BCA018A3091053CF02B81DD
S1131BA03C818B819C81FC01338722878FE590E007
S1131BB02981FC0120838A810F900F900F900F9050
S1131BC0DF91CF910895CF93DF9300D0CDB7DEB7E7
S1131BD09A83898329813A8189819A81FC01338797
S1131BE0228729813A8189819A81FC01358724875A
S1131BF00F900F90DF91CF910895CF93DF9300D092
S1131C00CDB7DEB79A83898389819A81FC012285C5
S1131C10338589819A81FC018485958541E0281763
S1131C20390709F040E0842F0F900F90DF91CF9196
S1131C300895CF93DF9300D0CDB7DEB79A8389831D
S1131C4089819A81FC01828593859C0189819A818D
S1131C50FC0184859585A901481B590BCA01813073
S1131C60910511F481E015C089819A81FC01848574
S1131C7095859C0189819A81FC0182859385A901BE
S1131C80481B590BCA018930910511F481E001C048
S1131C9080E00F900F90DF91CF910895CF93DF9361
S1131CA000D000D0CDB7DEB78A837C836B838FE509
S1131CB090E0FC0180818983F8948B819C810E944F
S1131CC0480A982F81E08927882359F18B819C81C8
S1131CD0FC01848595852A81FC0120838B819C816C
S1131CE0FC01848595859C012F5F3F4F8B819C81EE
S1131CF0FC01358724878B819C81FC018485958533
S1131D009C018B819C81A901481B590BCA018A3013
S1131D1091053CF02B813C818B819C81FC013587B2
S1131D2024878FE590E02981FC0120830F900F9098
S1131D300F900F90DF91CF910895CF93DF9300D050
S1131D4000D0CDB7DEB79C838B838FE590E0FC0198
S1131D5080818983F8948B819C810E942C0A88233A
S1131D6039F08FE590E02981FC0120838A8131C01C
S1131D708B819C81FC0182859385FC0180818A830F
S1131D808B819C81FC01828593859C012F5F3F4F51
S1131D908B819C81FC01338722878B819C81FC0190
S1131DA0828593859C018B819C81A901481B590BD9
S1131DB0CA018A3091053CF02B813C818B819C8146
S1131DC0FC01338722878FE590E02981FC01208381
S1131DD08A810F900F900F900F90DF91CF9108950B
S1131DE087FB082E062687FD819567FD619505D042
S1131DF00EF4919507FC81950895991B79E004C030
S1131E00991F961708F0961B881F7A95C9F7809535
S1131E100895AEE0B0E0EFE0FFE00C94C0118C0157
S1131E2086E08C831A83098377FF02C060E070E840
S1131E30615070407E836D83CE010196BA01A90181
S1131E400E94340F4D815E8157FD0AC02F81388571
S1131E50421753070CF49A01020F131FF801108262
S1131E602E96E4E00C94DC11ADE0B0E0EAE3FFE090
S1131E700C94B2113C017D876C875A01FC011782D6
S1131E801682838181FFC8C12E010894411C511C14
S1131E90F3019381EC85FD8593FD859193FF8191F9
S1131EA0FD87EC87882309F4B3C1853241F493FD9F
S1131EB0859193FF8191FD87EC87853229F490E029
S1131EC0B3010E942811E4CFFF24EE2410E0103265
S1131ED0B0F48B3269F08C3228F4803251F08332C2
S1131EE071F40BC08D3239F0803349F411602CC089
S1131EF01260146029C0186027C0106125C017FD46
S1131F002EC0282F20532A3098F416FF08C08F2D96
S1131F10880FF82EFF0CFF0CF80EF20E15C08E2D54
S1131F20880FE82EEE0CEE0CE80EE20E10620CC0E8
S1131F308E3221F416FD6CC1106406C08C3611F487
S1131F40106802C0883659F4EC85FD8593FD8591AF
S1131F5093FF8191FD87EC87882309F0B8CF982FF0
S1131F609554933018F09052933038F424E030E0D4
S1131F70A20EB31E3FE339830FC0833631F083379B
S1131F8081F0833509F05AC022C0F501808189832C
S1131F9022E030E0A20EB31E21E0C22ED12C420179
S1131FA014C092E0292E312C2A0C3B1CF5018080B0
S1131FB0918016FF03C06F2D70E002C06FEF7FEFBA
S1131FC0C4010E941D116C0151011F7715C082E0EC
S1131FD0282E312C2A0C3B1CF5018080918016FFA1
S1131FE003C06F2D70E002C06FEF7FEFC4010E9449
S1131FF012116C011068510113FD1CC006C080E26F
S113200090E0B3010E942811EA948E2D90E0C81646
S1132010D906A8F30FC0F40117FD859117FF81912C
S11320204F0190E0B3010E942811E110EA94089452
S1132030C108D108C114D10471F7E7C0843611F086
S1132040893651F5F50117FF07C080819181A2817E
S1132050B38124E030E008C080819181AA2797FDF4
S1132060A095BA2F22E030E0A20EB31E012F0F7606
S1132070B7FF08C0B095A095909581959F4FAF4F3D
S1132080BF4F0068BC01CD01A2012AE030E00E94EC
S11320905411D82ED4183FC0853721F41F7E2AE06E
S11320A030E020C0197F8F36A9F0803720F48835BE
S11320B009F0AEC00BC0803721F0883709F0A8C002
S11320C001C0106114FF09C0146007C014FF08C0E8
S11320D0166006C028E030E005C020E130E002C010
S11320E020E132E0F50117FF07C060817181828130
S11320F0938144E050E006C06081718180E090E00B
S113210042E050E0A40EB51EA2010E945411D82E44
S1132110D418012F0F7706FF09C00E7FDF1430F4A7
S113212004FF06C002FD04C00F7E02C01D2D01C0C5
S11321301F2D802F90E004FF0CC0FE01ED0DF11D5A
S11321402081203311F4097E09C002FF06C01E5FFE
S113215005C086789070009709F01F5F802E99243F
S113216003FD12C000FF0DC0FD2C1E1550F4FE0C23
S1132170F11A1E2D06C080E290E0B3010E942811DE
S11321801F5F1E15C0F304C01E1510F4E11A01C030
S1132190EE2484FE0FC080E390E0B3010E94281176
S11321A082FE1FC081FE03C088E590E010C088E76E
S11321B090E00DC0C40186789070009791F081FC86
S11321C002C080E201C08BE207FD8DE290E0B30122
S11321D00E94281106C080E390E0B3010E942811F8
S11321E0FA94DF14C0F3DA94F201ED0DF11D80814D
S11321F090E0B3010E942811DD20A9F706C080E217
S113220090E0B3010E942811EA94EE20C1F740CE79
S1132210F3018681978102C08FEF9FEF2D96E2E153
S11322200C94CE11FC010590615070400110D8F758
S1132230809590958E0F9F1F0895FC01615070400A
S113224001900110D8F7809590958E0F9F1F0895E7
S11322500F931F93CF93DF938C01EB018B8181FF4D
S11322601BC082FF0DC02E813F818C819D81281768
S1132270390764F4E881F9810193F983E88306C09E
S1132280E885F985802F0995009731F48E819F8127
S113229001969F838E8302C00FEF1FEFC801DF9169
S11322A0CF911F910F910895FA01AA27283051F177
S11322B0203181F1E8946F936E7F6E5F7F4F8F4F73
S11322C09F4FAF4FB1E03ED0B4E03CD0670F781FD2
S11322D0891F9A1FA11D680F791F8A1F911DA11DB7
S11322E06A0F711D811D911DA11D20D009F46894F0
S11322F03F912AE0269F11243019305D3193DEF698
S1132300CF010895462F4770405D4193B3E00FD04D
S1132310C9F7F6CF462F4F70405D4A3318F0495D38
S113232031FD4052419302D0A9F7EACFB4E0A6951B
S11323309795879577956795BA95C9F7009761053D
S1132340710508959B01AC010A2E06945795479593
S113235037952795BA95C9F7620F731F841F951F88
S1132360A01D08952F923F924F925F926F927F9299
S11323708F929F92AF92BF92CF92DF92EF92FF9291
S11323800F931F93CF93DF93CDB7DEB7CA1BDB0B3D
S11323900FB6F894DEBF0FBECDBF09942A883988E2
S11323A048885F846E847D848C849B84AA84B984E9
S11323B0C884DF80EE80FD800C811B81AA81B981F5
S11323C0CE0FD11D0FB6F894DEBF0FBECDBFED0109
S10923D00895F894FFCF0C
S11323D633033303330333033303330333038402F3
S11323E64A034A034A034A034A034A034A03A60220
S11323F66103610361036103610361036103C7024E
S1132406780378037803F0027803780378031103DA
S113241600010100000001010201000002010302A3
S1132426000003010403000404010404000505017B
S1132436040500060601040600070701000700005C
S113244620414C524D0020003A00414D00504D00B1
S11324560155088708A708DD08020927094C0971F0
S1132466090000010008000100020108010107003B
S1132476020103020802020700030304030803031C
S113248607000402050408040407000504060508F9
S113249605050700060507060806060700070807D8
S10724A60707000020
S9030000FC
